{
  "_format": "hh-sol-artifact-1",
  "contractName": "SimpleNFTEscrow",
  "sourceName": "contracts/SimpleNFTEscrow.sol",
  "abi": [
    {
      "inputs": [],
      "name": "CriteriaNotMet",
      "type": "error"
    },
    {
      "inputs": [],
      "name": "InactiveDeposit",
      "type": "error"
    },
    {
      "inputs": [],
      "name": "InvalidNFT",
      "type": "error"
    },
    {
      "inputs": [],
      "name": "MetadataCheckFailed",
      "type": "error"
    },
    {
      "inputs": [],
      "name": "MissingCriteria",
      "type": "error"
    },
    {
      "inputs": [],
      "name": "NotOwner",
      "type": "error"
    },
    {
      "inputs": [],
      "name": "ReentrancyGuardReentrantCall",
      "type": "error"
    },
    {
      "inputs": [],
      "name": "ZeroAddress",
      "type": "error"
    },
    {
      "anonymous": false,
      "inputs": [
        {
          "indexed": true,
          "internalType": "uint256",
          "name": "depositId",
          "type": "uint256"
        },
        {
          "indexed": true,
          "internalType": "address",
          "name": "owner",
          "type": "address"
        },
        {
          "indexed": true,
          "internalType": "address",
          "name": "nft",
          "type": "address"
        },
        {
          "indexed": false,
          "internalType": "uint256",
          "name": "tokenId",
          "type": "uint256"
        },
        {
          "indexed": false,
          "internalType": "string",
          "name": "requiredBallotId",
          "type": "string"
        },
        {
          "indexed": false,
          "internalType": "uint8",
          "name": "requiredGrade",
          "type": "uint8"
        }
      ],
      "name": "Deposited",
      "type": "event"
    },
    {
      "anonymous": false,
      "inputs": [
        {
          "indexed": true,
          "internalType": "uint256",
          "name": "targetDepositId",
          "type": "uint256"
        },
        {
          "indexed": true,
          "internalType": "uint256",
          "name": "takerDepositId",
          "type": "uint256"
        },
        {
          "indexed": true,
          "internalType": "address",
          "name": "taker",
          "type": "address"
        },
        {
          "indexed": false,
          "internalType": "address",
          "name": "targetOwner",
          "type": "address"
        },
        {
          "indexed": false,
          "internalType": "address",
          "name": "takerNft",
          "type": "address"
        },
        {
          "indexed": false,
          "internalType": "uint256",
          "name": "takerTokenId",
          "type": "uint256"
        }
      ],
      "name": "Swapped",
      "type": "event"
    },
    {
      "anonymous": false,
      "inputs": [
        {
          "indexed": true,
          "internalType": "uint256",
          "name": "depositId",
          "type": "uint256"
        },
        {
          "indexed": true,
          "internalType": "address",
          "name": "owner",
          "type": "address"
        }
      ],
      "name": "Withdrawn",
      "type": "event"
    },
    {
      "inputs": [
        {
          "internalType": "address",
          "name": "nft",
          "type": "address"
        },
        {
          "internalType": "uint256",
          "name": "tokenId",
          "type": "uint256"
        },
        {
          "internalType": "string",
          "name": "requiredBallotId",
          "type": "string"
        },
        {
          "internalType": "uint8",
          "name": "requiredGrade",
          "type": "uint8"
        }
      ],
      "name": "deposit",
      "outputs": [
        {
          "internalType": "uint256",
          "name": "depositId",
          "type": "uint256"
        }
      ],
      "stateMutability": "nonpayable",
      "type": "function"
    },
    {
      "inputs": [
        {
          "internalType": "uint256",
          "name": "",
          "type": "uint256"
        }
      ],
      "name": "deposits",
      "outputs": [
        {
          "internalType": "address",
          "name": "owner",
          "type": "address"
        },
        {
          "internalType": "address",
          "name": "nft",
          "type": "address"
        },
        {
          "internalType": "uint256",
          "name": "tokenId",
          "type": "uint256"
        },
        {
          "internalType": "bool",
          "name": "active",
          "type": "bool"
        },
        {
          "internalType": "string",
          "name": "requiredBallotId",
          "type": "string"
        },
        {
          "internalType": "uint8",
          "name": "requiredGrade",
          "type": "uint8"
        }
      ],
      "stateMutability": "view",
      "type": "function"
    },
    {
      "inputs": [
        {
          "internalType": "address",
          "name": "",
          "type": "address"
        },
        {
          "internalType": "address",
          "name": "",
          "type": "address"
        },
        {
          "internalType": "uint256",
          "name": "",
          "type": "uint256"
        },
        {
          "internalType": "bytes",
          "name": "",
          "type": "bytes"
        }
      ],
      "name": "onERC721Received",
      "outputs": [
        {
          "internalType": "bytes4",
          "name": "",
          "type": "bytes4"
        }
      ],
      "stateMutability": "pure",
      "type": "function"
    },
    {
      "inputs": [
        {
          "internalType": "uint256",
          "name": "targetDepositId",
          "type": "uint256"
        },
        {
          "internalType": "address",
          "name": "nft",
          "type": "address"
        },
        {
          "internalType": "uint256",
          "name": "tokenId",
          "type": "uint256"
        }
      ],
      "name": "swap",
      "outputs": [
        {
          "internalType": "uint256",
          "name": "takerDepositId",
          "type": "uint256"
        }
      ],
      "stateMutability": "nonpayable",
      "type": "function"
    },
    {
      "inputs": [
        {
          "internalType": "uint256",
          "name": "depositId",
          "type": "uint256"
        }
      ],
      "name": "withdraw",
      "outputs": [],
      "stateMutability": "nonpayable",
      "type": "function"
    }
  ],
  "bytecode": "0x60806040526001805534801561001457600080fd5b506001600081905550611be08061002c6000396000f3fe608060405234801561001057600080fd5b50600436106100575760003560e01c806311bd45ac1461005c578063150b7a021461008c5780632e1a7d4d146100bc57806343264349146100d8578063b02c43d014610108575b600080fd5b6100766004803603810190610071919061114c565b61013d565b60405161008391906111e3565b60405180910390f35b6100a660048036038101906100a19190611254565b61043a565b6040516100b39190611317565b60405180910390f35b6100d660048036038101906100d19190611332565b61044f565b005b6100f260048036038101906100ed919061135f565b610643565b6040516100ff91906111e3565b60405180910390f35b610122600480360381019061011d9190611332565b610b2f565b6040516101349695949392919061147b565b60405180910390f35b6000610147610c4d565b61015086610c93565b6000848490500361018d576040517f7cbbb00100000000000000000000000000000000000000000000000000000000815260040160405180910390fd5b8573ffffffffffffffffffffffffffffffffffffffff166342842e0e3330886040518463ffffffff1660e01b81526004016101ca939291906114e3565b600060405180830381600087803b1580156101e457600080fd5b505af11580156101f8573d6000803e3d6000fd5b505050506001600081548092919061020f90611549565b9190505590506040518060c001604052803373ffffffffffffffffffffffffffffffffffffffff1681526020018773ffffffffffffffffffffffffffffffffffffffff16815260200186815260200160011515815260200185858080601f016020809104026020016040519081016040528093929190818152602001838380828437600081840152601f19601f8201169050808301925050505050505081526020018360ff168152506002600083815260200190815260200160002060008201518160000160006101000a81548173ffffffffffffffffffffffffffffffffffffffff021916908373ffffffffffffffffffffffffffffffffffffffff16021790555060208201518160010160006101000a81548173ffffffffffffffffffffffffffffffffffffffff021916908373ffffffffffffffffffffffffffffffffffffffff1602179055506040820151816002015560608201518160030160006101000a81548160ff021916908315150217905550608082015181600401908161039891906117cc565b5060a08201518160050160006101000a81548160ff021916908360ff1602179055509050508573ffffffffffffffffffffffffffffffffffffffff163373ffffffffffffffffffffffffffffffffffffffff16827f93e9da6e2be23186c446799406ece912fab1fd1ce948e421182fd45ce1d76c478888888860405161042194939291906118da565b60405180910390a4610431610dcc565b95945050505050565b600063150b7a0260e01b905095945050505050565b610457610c4d565b60006002600083815260200190815260200160002090503373ffffffffffffffffffffffffffffffffffffffff168160000160009054906101000a900473ffffffffffffffffffffffffffffffffffffffff1673ffffffffffffffffffffffffffffffffffffffff16146104f7576040517f30cd747100000000000000000000000000000000000000000000000000000000815260040160405180910390fd5b8060030160009054906101000a900460ff1661053f576040517fc33e136700000000000000000000000000000000000000000000000000000000815260040160405180910390fd5b60008160030160006101000a81548160ff0219169083151502179055508060010160009054906101000a900473ffffffffffffffffffffffffffffffffffffffff1673ffffffffffffffffffffffffffffffffffffffff166342842e0e303384600201546040518463ffffffff1660e01b81526004016105c1939291906114e3565b600060405180830381600087803b1580156105db57600080fd5b505af11580156105ef573d6000803e3d6000fd5b505050503373ffffffffffffffffffffffffffffffffffffffff16827f8c7cdad0d12a8db3e23561b42da6f10c8137914c97beff202213a410e1f520a360405160405180910390a350610640610dcc565b50565b600061064d610c4d565b60006002600086815260200190815260200160002090508060030160009054906101000a900460ff166106ac576040517fc33e136700000000000000000000000000000000000000000000000000000000815260040160405180910390fd5b6106b584610c93565b6106c0818585610dd6565b600033905060008260000160009054906101000a900473ffffffffffffffffffffffffffffffffffffffff1690508573ffffffffffffffffffffffffffffffffffffffff166342842e0e8330886040518463ffffffff1660e01b815260040161072b939291906114e3565b600060405180830381600087803b15801561074557600080fd5b505af1158015610759573d6000803e3d6000fd5b505050506001600081548092919061077090611549565b9190505593506040518060c001604052808373ffffffffffffffffffffffffffffffffffffffff1681526020018773ffffffffffffffffffffffffffffffffffffffff1681526020018681526020016001151581526020018460040180546107d7906115ef565b80601f0160208091040260200160405190810160405280929190818152602001828054610803906115ef565b80156108505780601f1061082557610100808354040283529160200191610850565b820191906000526020600020905b81548152906001019060200180831161083357829003601f168201915b505050505081526020018460050160009054906101000a900460ff1660ff168152506002600086815260200190815260200160002060008201518160000160006101000a81548173ffffffffffffffffffffffffffffffffffffffff021916908373ffffffffffffffffffffffffffffffffffffffff16021790555060208201518160010160006101000a81548173ffffffffffffffffffffffffffffffffffffffff021916908373ffffffffffffffffffffffffffffffffffffffff1602179055506040820151816002015560608201518160030160006101000a81548160ff021916908315150217905550608082015181600401908161095291906117cc565b5060a08201518160050160006101000a81548160ff021916908360ff16021790555090505060008360030160006101000a81548160ff02191690831515021790555060006002600086815260200190815260200160002060030160006101000a81548160ff0219169083151502179055508260010160009054906101000a900473ffffffffffffffffffffffffffffffffffffffff1673ffffffffffffffffffffffffffffffffffffffff166342842e0e308486600201546040518463ffffffff1660e01b8152600401610a28939291906114e3565b600060405180830381600087803b158015610a4257600080fd5b505af1158015610a56573d6000803e3d6000fd5b505050508573ffffffffffffffffffffffffffffffffffffffff166342842e0e3083886040518463ffffffff1660e01b8152600401610a97939291906114e3565b600060405180830381600087803b158015610ab157600080fd5b505af1158015610ac5573d6000803e3d6000fd5b505050508173ffffffffffffffffffffffffffffffffffffffff1684887fc6ab252e8a2ae2fc4c3a844490c65a2e10f79c3052b16af94f0157ac1620a65a848a8a604051610b15939291906114e3565b60405180910390a4505050610b28610dcc565b9392505050565b60026020528060005260406000206000915090508060000160009054906101000a900473ffffffffffffffffffffffffffffffffffffffff16908060010160009054906101000a900473ffffffffffffffffffffffffffffffffffffffff16908060020154908060030160009054906101000a900460ff1690806004018054610bb7906115ef565b80601f0160208091040260200160405190810160405280929190818152602001828054610be3906115ef565b8015610c305780601f10610c0557610100808354040283529160200191610c30565b820191906000526020600020905b815481529060010190602001808311610c1357829003601f168201915b5050505050908060050160009054906101000a900460ff16905086565b600260005403610c89576040517f3ee5aeb500000000000000000000000000000000000000000000000000000000815260040160405180910390fd5b6002600081905550565b600073ffffffffffffffffffffffffffffffffffffffff168173ffffffffffffffffffffffffffffffffffffffff1603610cf9576040517fd92e233d00000000000000000000000000000000000000000000000000000000815260040160405180910390fd5b8073ffffffffffffffffffffffffffffffffffffffff166301ffc9a77f80ac58cd000000000000000000000000000000000000000000000000000000006040518263ffffffff1660e01b8152600401610d529190611317565b602060405180830381865afa158015610d6f573d6000803e3d6000fd5b505050506040513d601f19601f82011682018060405250810190610d939190611946565b610dc9576040517f0f3e2a3e00000000000000000000000000000000000000000000000000000000815260040160405180910390fd5b50565b6001600081905550565b6000836004018054610de7906115ef565b905003610e20576040517f7cbbb00100000000000000000000000000000000000000000000000000000000815260040160405180910390fd5b606060008373ffffffffffffffffffffffffffffffffffffffff1663b765e909846040518263ffffffff1660e01b8152600401610e5d91906111e3565b600060405180830381865afa925050508015610e9c57506040513d6000823e3d601f19601f82011682018060405250810190610e999190611a65565b60015b610ed2576040517fbd0add0600000000000000000000000000000000000000000000000000000000815260040160405180910390fd5b809250508373ffffffffffffffffffffffffffffffffffffffff1663afb0a369846040518263ffffffff1660e01b8152600401610f0f91906111e3565b602060405180830381865afa925050508015610f4957506040513d601f19601f82011682018060405250810190610f469190611ac3565b60015b610f7f576040517fbd0add0600000000000000000000000000000000000000000000000000000000815260040160405180910390fd5b8091505084600401604051610f949190611b93565b60405180910390208280519060200120141580610fc857508460050160009054906101000a900460ff1660ff168160ff1614155b15610fff576040517f9858eb3000000000000000000000000000000000000000000000000000000000815260040160405180910390fd5b5050505050565b6000604051905090565b600080fd5b600080fd5b600073ffffffffffffffffffffffffffffffffffffffff82169050919050565b60006110458261101a565b9050919050565b6110558161103a565b811461106057600080fd5b50565b6000813590506110728161104c565b92915050565b6000819050919050565b61108b81611078565b811461109657600080fd5b50565b6000813590506110a881611082565b92915050565b600080fd5b600080fd5b600080fd5b60008083601f8401126110d3576110d26110ae565b5b8235905067ffffffffffffffff8111156110f0576110ef6110b3565b5b60208301915083600182028301111561110c5761110b6110b8565b5b9250929050565b600060ff82169050919050565b61112981611113565b811461113457600080fd5b50565b60008135905061114681611120565b92915050565b60008060008060006080868803121561116857611167611010565b5b600061117688828901611063565b955050602061118788828901611099565b945050604086013567ffffffffffffffff8111156111a8576111a7611015565b5b6111b4888289016110bd565b935093505060606111c788828901611137565b9150509295509295909350565b6111dd81611078565b82525050565b60006020820190506111f860008301846111d4565b92915050565b60008083601f840112611214576112136110ae565b5b8235905067ffffffffffffffff811115611231576112306110b3565b5b60208301915083600182028301111561124d5761124c6110b8565b5b9250929050565b6000806000806000608086880312156112705761126f611010565b5b600061127e88828901611063565b955050602061128f88828901611063565b94505060406112a088828901611099565b935050606086013567ffffffffffffffff8111156112c1576112c0611015565b5b6112cd888289016111fe565b92509250509295509295909350565b60007fffffffff0000000000000000000000000000000000000000000000000000000082169050919050565b611311816112dc565b82525050565b600060208201905061132c6000830184611308565b92915050565b60006020828403121561134857611347611010565b5b600061135684828501611099565b91505092915050565b60008060006060848603121561137857611377611010565b5b600061138686828701611099565b935050602061139786828701611063565b92505060406113a886828701611099565b9150509250925092565b6113bb8161103a565b82525050565b60008115159050919050565b6113d6816113c1565b82525050565b600081519050919050565b600082825260208201905092915050565b60005b838110156114165780820151818401526020810190506113fb565b60008484015250505050565b6000601f19601f8301169050919050565b600061143e826113dc565b61144881856113e7565b93506114588185602086016113f8565b61146181611422565b840191505092915050565b61147581611113565b82525050565b600060c08201905061149060008301896113b2565b61149d60208301886113b2565b6114aa60408301876111d4565b6114b760608301866113cd565b81810360808301526114c98185611433565b90506114d860a083018461146c565b979650505050505050565b60006060820190506114f860008301866113b2565b61150560208301856113b2565b61151260408301846111d4565b949350505050565b7f4e487b7100000000000000000000000000000000000000000000000000000000600052601160045260246000fd5b600061155482611078565b91507fffffffffffffffffffffffffffffffffffffffffffffffffffffffffffffffff82036115865761158561151a565b5b600182019050919050565b7f4e487b7100000000000000000000000000000000000000000000000000000000600052604160045260246000fd5b7f4e487b7100000000000000000000000000000000000000000000000000000000600052602260045260246000fd5b6000600282049050600182168061160757607f821691505b60208210810361161a576116196115c0565b5b50919050565b60008190508160005260206000209050919050565b60006020601f8301049050919050565b600082821b905092915050565b6000600883026116827fffffffffffffffffffffffffffffffffffffffffffffffffffffffffffffffff82611645565b61168c8683611645565b95508019841693508086168417925050509392505050565b6000819050919050565b60006116c96116c46116bf84611078565b6116a4565b611078565b9050919050565b6000819050919050565b6116e3836116ae565b6116f76116ef826116d0565b848454611652565b825550505050565b600090565b61170c6116ff565b6117178184846116da565b505050565b5b8181101561173b57611730600082611704565b60018101905061171d565b5050565b601f8211156117805761175181611620565b61175a84611635565b81016020851015611769578190505b61177d61177585611635565b83018261171c565b50505b505050565b600082821c905092915050565b60006117a360001984600802611785565b1980831691505092915050565b60006117bc8383611792565b9150826002028217905092915050565b6117d5826113dc565b67ffffffffffffffff8111156117ee576117ed611591565b5b6117f882546115ef565b61180382828561173f565b600060209050601f8311600181146118365760008415611824578287015190505b61182e85826117b0565b865550611896565b601f19841661184486611620565b60005b8281101561186c57848901518255600182019150602085019450602081019050611847565b868310156118895784890151611885601f891682611792565b8355505b6001600288020188555050505b505050505050565b82818337600083830152505050565b60006118b983856113e7565b93506118c683858461189e565b6118cf83611422565b840190509392505050565b60006060820190506118ef60008301876111d4565b81810360208301526119028185876118ad565b9050611911604083018461146c565b95945050505050565b611923816113c1565b811461192e57600080fd5b50565b6000815190506119408161191a565b92915050565b60006020828403121561195c5761195b611010565b5b600061196a84828501611931565b91505092915050565b600080fd5b61198182611422565b810181811067ffffffffffffffff821117156119a05761199f611591565b5b80604052505050565b60006119b3611006565b90506119bf8282611978565b919050565b600067ffffffffffffffff8211156119df576119de611591565b5b6119e882611422565b9050602081019050919050565b6000611a08611a03846119c4565b6119a9565b905082815260208101848484011115611a2457611a23611973565b5b611a2f8482856113f8565b509392505050565b600082601f830112611a4c57611a4b6110ae565b5b8151611a5c8482602086016119f5565b91505092915050565b600060208284031215611a7b57611a7a611010565b5b600082015167ffffffffffffffff811115611a9957611a98611015565b5b611aa584828501611a37565b91505092915050565b600081519050611abd81611120565b92915050565b600060208284031215611ad957611ad8611010565b5b6000611ae784828501611aae565b91505092915050565b600081905092915050565b60008190508160005260206000209050919050565b60008154611b1d816115ef565b611b278186611af0565b94506001821660008114611b425760018114611b5757611b8a565b60ff1983168652811515820286019350611b8a565b611b6085611afb565b60005b83811015611b8257815481890152600182019150602081019050611b63565b838801955050505b50505092915050565b6000611b9f8284611b10565b91508190509291505056fea26469706673582212205d56271f46809d1cf2ff08051246a4b30e793e6c4e82dcd0e3f8621cc0be067d64736f6c63430008140033",
  "linkReferences": {},
  "deployedLinkReferences": {}
}