{
  "_format": "hh-sol-artifact-1",
  "contractName": "SimpleNFTEscrow",
  "sourceName": "contracts/SimpleNFTEscrow.sol",
  "abi": [
    {
      "inputs": [],
      "name": "InactiveDeposit",
      "type": "error"
    },
    {
      "inputs": [],
      "name": "InvalidNFT",
      "type": "error"
    },
    {
      "inputs": [],
      "name": "NotOwner",
      "type": "error"
    },
    {
      "inputs": [],
      "name": "ReentrancyGuardReentrantCall",
      "type": "error"
    },
    {
      "inputs": [],
      "name": "ZeroAddress",
      "type": "error"
    },
    {
      "anonymous": false,
      "inputs": [
        {
          "indexed": true,
          "internalType": "uint256",
          "name": "depositId",
          "type": "uint256"
        },
        {
          "indexed": true,
          "internalType": "address",
          "name": "owner",
          "type": "address"
        },
        {
          "indexed": true,
          "internalType": "address",
          "name": "nft",
          "type": "address"
        },
        {
          "indexed": false,
          "internalType": "uint256",
          "name": "tokenId",
          "type": "uint256"
        }
      ],
      "name": "Deposited",
      "type": "event"
    },
    {
      "anonymous": false,
      "inputs": [
        {
          "indexed": true,
          "internalType": "uint256",
          "name": "targetDepositId",
          "type": "uint256"
        },
        {
          "indexed": true,
          "internalType": "uint256",
          "name": "takerDepositId",
          "type": "uint256"
        },
        {
          "indexed": true,
          "internalType": "address",
          "name": "taker",
          "type": "address"
        },
        {
          "indexed": false,
          "internalType": "address",
          "name": "targetOwner",
          "type": "address"
        },
        {
          "indexed": false,
          "internalType": "address",
          "name": "takerNft",
          "type": "address"
        },
        {
          "indexed": false,
          "internalType": "uint256",
          "name": "takerTokenId",
          "type": "uint256"
        }
      ],
      "name": "Swapped",
      "type": "event"
    },
    {
      "anonymous": false,
      "inputs": [
        {
          "indexed": true,
          "internalType": "uint256",
          "name": "depositId",
          "type": "uint256"
        },
        {
          "indexed": true,
          "internalType": "address",
          "name": "owner",
          "type": "address"
        }
      ],
      "name": "Withdrawn",
      "type": "event"
    },
    {
      "inputs": [
        {
          "internalType": "address",
          "name": "nft",
          "type": "address"
        },
        {
          "internalType": "uint256",
          "name": "tokenId",
          "type": "uint256"
        }
      ],
      "name": "deposit",
      "outputs": [
        {
          "internalType": "uint256",
          "name": "depositId",
          "type": "uint256"
        }
      ],
      "stateMutability": "nonpayable",
      "type": "function"
    },
    {
      "inputs": [
        {
          "internalType": "uint256",
          "name": "",
          "type": "uint256"
        }
      ],
      "name": "deposits",
      "outputs": [
        {
          "internalType": "address",
          "name": "owner",
          "type": "address"
        },
        {
          "internalType": "address",
          "name": "nft",
          "type": "address"
        },
        {
          "internalType": "uint256",
          "name": "tokenId",
          "type": "uint256"
        },
        {
          "internalType": "bool",
          "name": "active",
          "type": "bool"
        }
      ],
      "stateMutability": "view",
      "type": "function"
    },
    {
      "inputs": [
        {
          "internalType": "address",
          "name": "",
          "type": "address"
        },
        {
          "internalType": "address",
          "name": "",
          "type": "address"
        },
        {
          "internalType": "uint256",
          "name": "",
          "type": "uint256"
        },
        {
          "internalType": "bytes",
          "name": "",
          "type": "bytes"
        }
      ],
      "name": "onERC721Received",
      "outputs": [
        {
          "internalType": "bytes4",
          "name": "",
          "type": "bytes4"
        }
      ],
      "stateMutability": "pure",
      "type": "function"
    },
    {
      "inputs": [
        {
          "internalType": "uint256",
          "name": "targetDepositId",
          "type": "uint256"
        },
        {
          "internalType": "address",
          "name": "nft",
          "type": "address"
        },
        {
          "internalType": "uint256",
          "name": "tokenId",
          "type": "uint256"
        }
      ],
      "name": "swap",
      "outputs": [
        {
          "internalType": "uint256",
          "name": "takerDepositId",
          "type": "uint256"
        }
      ],
      "stateMutability": "nonpayable",
      "type": "function"
    },
    {
      "inputs": [
        {
          "internalType": "uint256",
          "name": "depositId",
          "type": "uint256"
        }
      ],
      "name": "withdraw",
      "outputs": [],
      "stateMutability": "nonpayable",
      "type": "function"
    }
  ],
  "bytecode": "0x60806040526001805534801561001457600080fd5b506001600081905550610fec8061002c6000396000f3fe608060405234801561001057600080fd5b50600436106100575760003560e01c8063150b7a021461005c5780632e1a7d4d1461008c57806343264349146100a857806347e7ef24146100d8578063b02c43d014610108575b600080fd5b61007660048036038101906100719190610c78565b61013b565b6040516100839190610d3b565b60405180910390f35b6100a660048036038101906100a19190610d56565b610150565b005b6100c260048036038101906100bd9190610d83565b610344565b6040516100cf9190610de5565b60405180910390f35b6100f260048036038101906100ed9190610e00565b610742565b6040516100ff9190610de5565b60405180910390f35b610122600480360381019061011d9190610d56565b61096f565b6040516101329493929190610e6a565b60405180910390f35b600063150b7a0260e01b905095945050505050565b6101586109ec565b60006002600083815260200190815260200160002090503373ffffffffffffffffffffffffffffffffffffffff168160000160009054906101000a900473ffffffffffffffffffffffffffffffffffffffff1673ffffffffffffffffffffffffffffffffffffffff16146101f8576040517f30cd747100000000000000000000000000000000000000000000000000000000815260040160405180910390fd5b8060030160009054906101000a900460ff16610240576040517fc33e136700000000000000000000000000000000000000000000000000000000815260040160405180910390fd5b60008160030160006101000a81548160ff0219169083151502179055508060010160009054906101000a900473ffffffffffffffffffffffffffffffffffffffff1673ffffffffffffffffffffffffffffffffffffffff166342842e0e303384600201546040518463ffffffff1660e01b81526004016102c293929190610eaf565b600060405180830381600087803b1580156102dc57600080fd5b505af11580156102f0573d6000803e3d6000fd5b505050503373ffffffffffffffffffffffffffffffffffffffff16827f8c7cdad0d12a8db3e23561b42da6f10c8137914c97beff202213a410e1f520a360405160405180910390a350610341610a32565b50565b600061034e6109ec565b60006002600086815260200190815260200160002090508060030160009054906101000a900460ff166103ad576040517fc33e136700000000000000000000000000000000000000000000000000000000815260040160405180910390fd5b6103b684610a3c565b600033905060008260000160009054906101000a900473ffffffffffffffffffffffffffffffffffffffff1690508573ffffffffffffffffffffffffffffffffffffffff166342842e0e8330886040518463ffffffff1660e01b815260040161042193929190610eaf565b600060405180830381600087803b15801561043b57600080fd5b505af115801561044f573d6000803e3d6000fd5b505050506001600081548092919061046690610f15565b91905055935060405180608001604052808373ffffffffffffffffffffffffffffffffffffffff1681526020018773ffffffffffffffffffffffffffffffffffffffff168152602001868152602001600115158152506002600086815260200190815260200160002060008201518160000160006101000a81548173ffffffffffffffffffffffffffffffffffffffff021916908373ffffffffffffffffffffffffffffffffffffffff16021790555060208201518160010160006101000a81548173ffffffffffffffffffffffffffffffffffffffff021916908373ffffffffffffffffffffffffffffffffffffffff1602179055506040820151816002015560608201518160030160006101000a81548160ff02191690831515021790555090505060008360030160006101000a81548160ff02191690831515021790555060006002600086815260200190815260200160002060030160006101000a81548160ff0219169083151502179055508260010160009054906101000a900473ffffffffffffffffffffffffffffffffffffffff1673ffffffffffffffffffffffffffffffffffffffff166342842e0e308486600201546040518463ffffffff1660e01b815260040161063b93929190610eaf565b600060405180830381600087803b15801561065557600080fd5b505af1158015610669573d6000803e3d6000fd5b505050508573ffffffffffffffffffffffffffffffffffffffff166342842e0e3083886040518463ffffffff1660e01b81526004016106aa93929190610eaf565b600060405180830381600087803b1580156106c457600080fd5b505af11580156106d8573d6000803e3d6000fd5b505050508173ffffffffffffffffffffffffffffffffffffffff1684887fc6ab252e8a2ae2fc4c3a844490c65a2e10f79c3052b16af94f0157ac1620a65a848a8a60405161072893929190610eaf565b60405180910390a450505061073b610a32565b9392505050565b600061074c6109ec565b61075583610a3c565b8273ffffffffffffffffffffffffffffffffffffffff166342842e0e3330856040518463ffffffff1660e01b815260040161079293929190610eaf565b600060405180830381600087803b1580156107ac57600080fd5b505af11580156107c0573d6000803e3d6000fd5b50505050600160008154809291906107d790610f15565b91905055905060405180608001604052803373ffffffffffffffffffffffffffffffffffffffff1681526020018473ffffffffffffffffffffffffffffffffffffffff168152602001838152602001600115158152506002600083815260200190815260200160002060008201518160000160006101000a81548173ffffffffffffffffffffffffffffffffffffffff021916908373ffffffffffffffffffffffffffffffffffffffff16021790555060208201518160010160006101000a81548173ffffffffffffffffffffffffffffffffffffffff021916908373ffffffffffffffffffffffffffffffffffffffff1602179055506040820151816002015560608201518160030160006101000a81548160ff0219169083151502179055509050508273ffffffffffffffffffffffffffffffffffffffff163373ffffffffffffffffffffffffffffffffffffffff16827f984a71c9d95fd4794aeba33ae72edfec22053fde75488d63abef9dc69ee795af856040516109599190610de5565b60405180910390a4610969610a32565b92915050565b60026020528060005260406000206000915090508060000160009054906101000a900473ffffffffffffffffffffffffffffffffffffffff16908060010160009054906101000a900473ffffffffffffffffffffffffffffffffffffffff16908060020154908060030160009054906101000a900460ff16905084565b600260005403610a28576040517f3ee5aeb500000000000000000000000000000000000000000000000000000000815260040160405180910390fd5b6002600081905550565b6001600081905550565b600073ffffffffffffffffffffffffffffffffffffffff168173ffffffffffffffffffffffffffffffffffffffff1603610aa2576040517fd92e233d00000000000000000000000000000000000000000000000000000000815260040160405180910390fd5b8073ffffffffffffffffffffffffffffffffffffffff166301ffc9a77f80ac58cd000000000000000000000000000000000000000000000000000000006040518263ffffffff1660e01b8152600401610afb9190610d3b565b602060405180830381865afa158015610b18573d6000803e3d6000fd5b505050506040513d601f19601f82011682018060405250810190610b3c9190610f89565b610b72576040517f0f3e2a3e00000000000000000000000000000000000000000000000000000000815260040160405180910390fd5b50565b600080fd5b600080fd5b600073ffffffffffffffffffffffffffffffffffffffff82169050919050565b6000610baa82610b7f565b9050919050565b610bba81610b9f565b8114610bc557600080fd5b50565b600081359050610bd781610bb1565b92915050565b6000819050919050565b610bf081610bdd565b8114610bfb57600080fd5b50565b600081359050610c0d81610be7565b92915050565b600080fd5b600080fd5b600080fd5b60008083601f840112610c3857610c37610c13565b5b8235905067ffffffffffffffff811115610c5557610c54610c18565b5b602083019150836001820283011115610c7157610c70610c1d565b5b9250929050565b600080600080600060808688031215610c9457610c93610b75565b5b6000610ca288828901610bc8565b9550506020610cb388828901610bc8565b9450506040610cc488828901610bfe565b935050606086013567ffffffffffffffff811115610ce557610ce4610b7a565b5b610cf188828901610c22565b92509250509295509295909350565b60007fffffffff0000000000000000000000000000000000000000000000000000000082169050919050565b610d3581610d00565b82525050565b6000602082019050610d506000830184610d2c565b92915050565b600060208284031215610d6c57610d6b610b75565b5b6000610d7a84828501610bfe565b91505092915050565b600080600060608486031215610d9c57610d9b610b75565b5b6000610daa86828701610bfe565b9350506020610dbb86828701610bc8565b9250506040610dcc86828701610bfe565b9150509250925092565b610ddf81610bdd565b82525050565b6000602082019050610dfa6000830184610dd6565b92915050565b60008060408385031215610e1757610e16610b75565b5b6000610e2585828601610bc8565b9250506020610e3685828601610bfe565b9150509250929050565b610e4981610b9f565b82525050565b60008115159050919050565b610e6481610e4f565b82525050565b6000608082019050610e7f6000830187610e40565b610e8c6020830186610e40565b610e996040830185610dd6565b610ea66060830184610e5b565b95945050505050565b6000606082019050610ec46000830186610e40565b610ed16020830185610e40565b610ede6040830184610dd6565b949350505050565b7f4e487b7100000000000000000000000000000000000000000000000000000000600052601160045260246000fd5b6000610f2082610bdd565b91507fffffffffffffffffffffffffffffffffffffffffffffffffffffffffffffffff8203610f5257610f51610ee6565b5b600182019050919050565b610f6681610e4f565b8114610f7157600080fd5b50565b600081519050610f8381610f5d565b92915050565b600060208284031215610f9f57610f9e610b75565b5b6000610fad84828501610f74565b9150509291505056fea2646970667358221220c705842bec417c493e14b839c69df9ac137885bb6c52e1e828c86dbb09b00af264736f6c63430008140033",
  "linkReferences": {},
  "deployedLinkReferences": {}
}